{
  "_format": "hh-sol-artifact-1",
  "contractName": "zkMixer",
  "sourceName": "contracts/zkMixer.sol",
  "abi": [
    {
      "inputs": [
        {
          "internalType": "address",
          "name": "_verifier",
          "type": "address"
        },
        {
          "internalType": "uint256",
          "name": "_denomination",
          "type": "uint256"
        },
        {
          "internalType": "uint32",
          "name": "_depth",
          "type": "uint32"
        }
      ],
      "stateMutability": "nonpayable",
      "type": "constructor"
    },
    {
      "anonymous": false,
      "inputs": [
        {
          "indexed": true,
          "internalType": "uint256",
          "name": "commitment",
          "type": "uint256"
        },
        {
          "indexed": false,
          "internalType": "uint256",
          "name": "leafIndex",
          "type": "uint256"
        },
        {
          "indexed": false,
          "internalType": "uint256",
          "name": "timestamp",
          "type": "uint256"
        }
      ],
      "name": "Deposit",
      "type": "event"
    },
    {
      "anonymous": false,
      "inputs": [
        {
          "indexed": false,
          "internalType": "address",
          "name": "to",
          "type": "address"
        },
        {
          "indexed": false,
          "internalType": "uint256",
          "name": "nullifierHash",
          "type": "uint256"
        },
        {
          "indexed": true,
          "internalType": "address",
          "name": "relayer",
          "type": "address"
        },
        {
          "indexed": false,
          "internalType": "uint256",
          "name": "fee",
          "type": "uint256"
        }
      ],
      "name": "Withdrawal",
      "type": "event"
    },
    {
      "inputs": [],
      "name": "ROOT_HISTORY_SIZE",
      "outputs": [
        {
          "internalType": "uint32",
          "name": "",
          "type": "uint32"
        }
      ],
      "stateMutability": "view",
      "type": "function"
    },
    {
      "inputs": [
        {
          "internalType": "uint256",
          "name": "",
          "type": "uint256"
        }
      ],
      "name": "commitments",
      "outputs": [
        {
          "internalType": "bool",
          "name": "",
          "type": "bool"
        }
      ],
      "stateMutability": "view",
      "type": "function"
    },
    {
      "inputs": [],
      "name": "currentRootIndex",
      "outputs": [
        {
          "internalType": "uint32",
          "name": "",
          "type": "uint32"
        }
      ],
      "stateMutability": "view",
      "type": "function"
    },
    {
      "inputs": [],
      "name": "denomination",
      "outputs": [
        {
          "internalType": "uint256",
          "name": "",
          "type": "uint256"
        }
      ],
      "stateMutability": "view",
      "type": "function"
    },
    {
      "inputs": [
        {
          "internalType": "uint256",
          "name": "_commitment",
          "type": "uint256"
        }
      ],
      "name": "deposit",
      "outputs": [],
      "stateMutability": "payable",
      "type": "function"
    },
    {
      "inputs": [],
      "name": "getDenomination",
      "outputs": [
        {
          "internalType": "uint256",
          "name": "",
          "type": "uint256"
        }
      ],
      "stateMutability": "view",
      "type": "function"
    },
    {
      "inputs": [],
      "name": "getDepth",
      "outputs": [
        {
          "internalType": "uint256",
          "name": "",
          "type": "uint256"
        }
      ],
      "stateMutability": "view",
      "type": "function"
    },
    {
      "inputs": [],
      "name": "getIndex",
      "outputs": [
        {
          "internalType": "uint256",
          "name": "",
          "type": "uint256"
        }
      ],
      "stateMutability": "view",
      "type": "function"
    },
    {
      "inputs": [],
      "name": "getRoot",
      "outputs": [
        {
          "internalType": "uint256",
          "name": "",
          "type": "uint256"
        }
      ],
      "stateMutability": "view",
      "type": "function"
    },
    {
      "inputs": [
        {
          "internalType": "uint256",
          "name": "_root",
          "type": "uint256"
        }
      ],
      "name": "isKnownRoot",
      "outputs": [
        {
          "internalType": "bool",
          "name": "",
          "type": "bool"
        }
      ],
      "stateMutability": "view",
      "type": "function"
    },
    {
      "inputs": [
        {
          "internalType": "uint256",
          "name": "",
          "type": "uint256"
        }
      ],
      "name": "nullifierHashes",
      "outputs": [
        {
          "internalType": "bool",
          "name": "",
          "type": "bool"
        }
      ],
      "stateMutability": "view",
      "type": "function"
    },
    {
      "inputs": [
        {
          "internalType": "uint256",
          "name": "",
          "type": "uint256"
        }
      ],
      "name": "roots",
      "outputs": [
        {
          "internalType": "uint256",
          "name": "",
          "type": "uint256"
        }
      ],
      "stateMutability": "view",
      "type": "function"
    },
    {
      "inputs": [],
      "name": "tree",
      "outputs": [
        {
          "internalType": "uint256",
          "name": "depth",
          "type": "uint256"
        },
        {
          "internalType": "uint256",
          "name": "root",
          "type": "uint256"
        },
        {
          "internalType": "uint256",
          "name": "numberOfLeaves",
          "type": "uint256"
        },
        {
          "internalType": "bool",
          "name": "useDefaultZeroes",
          "type": "bool"
        }
      ],
      "stateMutability": "view",
      "type": "function"
    },
    {
      "inputs": [],
      "name": "verifier",
      "outputs": [
        {
          "internalType": "contract IVerifier",
          "name": "",
          "type": "address"
        }
      ],
      "stateMutability": "view",
      "type": "function"
    },
    {
      "inputs": [
        {
          "internalType": "address payable",
          "name": "to",
          "type": "address"
        },
        {
          "internalType": "uint256",
          "name": "fee",
          "type": "uint256"
        },
        {
          "internalType": "uint256[2]",
          "name": "a",
          "type": "uint256[2]"
        },
        {
          "internalType": "uint256[2][2]",
          "name": "b",
          "type": "uint256[2][2]"
        },
        {
          "internalType": "uint256[2]",
          "name": "c",
          "type": "uint256[2]"
        },
        {
          "internalType": "uint256[2]",
          "name": "input",
          "type": "uint256[2]"
        }
      ],
      "name": "withdraw",
      "outputs": [
        {
          "internalType": "bool",
          "name": "",
          "type": "bool"
        }
      ],
      "stateMutability": "payable",
      "type": "function"
    }
  ],
  "bytecode": "0x60806040526000600760006101000a81548163ffffffff021916908363ffffffff1602179055503480156200003357600080fd5b5060405162001b6f38038062001b6f8339818101604052810190620000599190620001b5565b8063ffffffff16600073__$4c2cba6680386d05354b71d5a44411cc21$__6312b3a2fb9091836040518363ffffffff1660e01b81526004016200009e9291906200026c565b60006040518083038186803b158015620000b757600080fd5b505af4158015620000cc573d6000803e3d6000fd5b50505050506001600881905550600082116200011f576040517f08c379a000000000000000000000000000000000000000000000000000000000815260040162000116906200024a565b60405180910390fd5b82600960006101000a81548173ffffffffffffffffffffffffffffffffffffffff021916908373ffffffffffffffffffffffffffffffffffffffff16021790555081600a8190555050505062000395565b600081519050620001818162000347565b92915050565b600081519050620001988162000361565b92915050565b600081519050620001af816200037b565b92915050565b600080600060608486031215620001cb57600080fd5b6000620001db8682870162000170565b9350506020620001ee8682870162000187565b925050604062000201868287016200019e565b9150509250925092565b60006200021a60258362000299565b91506200022782620002f8565b604082019050919050565b8082525050565b6200024481620002de565b82525050565b6000602082019050818103600083015262000265816200020b565b9050919050565b600060408201905062000283600083018562000232565b62000292602083018462000239565b9392505050565b600082825260208201905092915050565b6000620002b782620002be565b9050919050565b600073ffffffffffffffffffffffffffffffffffffffff82169050919050565b6000819050919050565b600063ffffffff82169050919050565b7f64656e6f6d696e6174696f6e2073686f756c642062652067726561746572207460008201527f68616e2030000000000000000000000000000000000000000000000000000000602082015250565b6200035281620002aa565b81146200035e57600080fd5b50565b6200036c81620002de565b81146200037857600080fd5b50565b6200038681620002e8565b81146200039257600080fd5b50565b6117ca80620003a56000396000f3fe6080604052600436106100e85760003560e01c806381045ead1161008a578063b6b55f2511610059578063b6b55f2514610301578063c2b40ae41461031d578063cd87a3b41461035a578063fd54b22814610385576100e8565b806381045ead146102435780638bca6d161461026e57806390eeb02b14610299578063a6232a93146102c4576100e8565b80632b7ac3f3116100c65780632b7ac3f314610185578063367506ef146101b057806349ce8997146101db5780635ca1e16514610218576100e8565b80630101fc6d146100ed5780631f79a1e91461011d5780631fc601c91461015a575b600080fd5b61010760048036038101906101029190610d1d565b6103b3565b6040516101149190611119565b60405180910390f35b34801561012957600080fd5b50610144600480360381019061013f9190610dd2565b610787565b6040516101519190611119565b60405180910390f35b34801561016657600080fd5b5061016f6107a7565b60405161017c9190611238565b60405180910390f35b34801561019157600080fd5b5061019a6107b1565b6040516101a79190611134565b60405180910390f35b3480156101bc57600080fd5b506101c56107d7565b6040516101d29190611238565b60405180910390f35b3480156101e757600080fd5b5061020260048036038101906101fd9190610dd2565b6107e3565b60405161020f9190611119565b60405180910390f35b34801561022457600080fd5b5061022d610803565b60405161023a9190611238565b60405180910390f35b34801561024f57600080fd5b5061025861080f565b6040516102659190611238565b60405180910390f35b34801561027a57600080fd5b5061028361081b565b6040516102909190611238565b60405180910390f35b3480156102a557600080fd5b506102ae610821565b6040516102bb91906112c1565b60405180910390f35b3480156102d057600080fd5b506102eb60048036038101906102e69190610dd2565b610837565b6040516102f89190611119565b60405180910390f35b61031b60048036038101906103169190610dd2565b6108d5565b005b34801561032957600080fd5b50610344600480360381019061033f9190610dd2565b610a0a565b6040516103519190611238565b60405180910390f35b34801561036657600080fd5b5061036f610a22565b60405161037c91906112c1565b60405180910390f35b34801561039157600080fd5b5061039a610a27565b6040516103aa949392919061127c565b60405180910390f35b60006103bd610a52565b600960009054906101000a900473ffffffffffffffffffffffffffffffffffffffff1673ffffffffffffffffffffffffffffffffffffffff1663f5c9d69e868686866040518563ffffffff1660e01b815260040161041e94939291906110d2565b60206040518083038186803b15801561043657600080fd5b505afa15801561044a573d6000803e3d6000fd5b505050506040513d601f19601f8201168201806040525081019061046e9190610da9565b6104ad576040517f08c379a00000000000000000000000000000000000000000000000000000000081526004016104a4906111af565b60405180910390fd5b600b6000836001600281106104eb577f4e487b7100000000000000000000000000000000000000000000000000000000600052603260045260246000fd5b6020020151815260200190815260200160002060009054906101000a900460ff161561054c576040517f08c379a00000000000000000000000000000000000000000000000000000000081526004016105439061118f565b60405180910390fd5b61059382600060028110610589577f4e487b7100000000000000000000000000000000000000000000000000000000600052603260045260246000fd5b6020020151610837565b6105d2576040517f08c379a00000000000000000000000000000000000000000000000000000000081526004016105c9906111cf565b60405180910390fd5b6001600b600084600160028110610612577f4e487b7100000000000000000000000000000000000000000000000000000000600052603260045260246000fd5b6020020151815260200190815260200160002060006101000a81548160ff0219169083151502179055508673ffffffffffffffffffffffffffffffffffffffff166108fc87600a5461066491906113fd565b9081150290604051600060405180830381858888f1935050505015801561068f573d6000803e3d6000fd5b5060008611156106e1573373ffffffffffffffffffffffffffffffffffffffff166108fc879081150290604051600060405180830381858888f193505050501580156106df573d6000803e3d6000fd5b505b3373ffffffffffffffffffffffffffffffffffffffff167fa708f6433a1b53b1e6af0c278ad548516ef5eab45716a7f85657ee720cd2ece08884600160028110610754577f4e487b7100000000000000000000000000000000000000000000000000000000600052603260045260246000fd5b6020020151896040516107699392919061109b565b60405180910390a26001905061077d610aa2565b9695505050505050565b600b6020528060005260406000206000915054906101000a900460ff1681565b6000600a54905090565b600960009054906101000a900473ffffffffffffffffffffffffffffffffffffffff1681565b60008060000154905090565b600c6020528060005260406000206000915054906101000a900460ff1681565b60008060010154905090565b60008060020154905090565b600a5481565b600760009054906101000a900463ffffffff1681565b60008082141561084a57600090506108d0565b6000600760009054906101000a900463ffffffff16905060008190505b600660008263ffffffff16815260200190815260200160002054841415610893576001925050506108d0565b60008163ffffffff1614156108a757601890505b80806108b2906114e3565b9150508163ffffffff168163ffffffff161415610867576000925050505b919050565b6108dd610a52565b600c600082815260200190815260200160002060009054906101000a900460ff161561093e576040517f08c379a00000000000000000000000000000000000000000000000000000000081526004016109359061116f565b60405180910390fd5b600a543414610982576040517f08c379a00000000000000000000000000000000000000000000000000000000081526004016109799061114f565b60405180910390fd5b61098b81610aac565b506001600c600083815260200190815260200160002060006101000a81548160ff02191690831515021790555060006109c261080f565b9050817f33da4f9b82b3e18a281ca2cabbe2f076925692abb593b7ea3f850009e8ec977082426040516109f6929190611253565b60405180910390a250610a07610aa2565b50565b60066020528060005260406000206000915090505481565b601881565b60008060000154908060010154908060020154908060050160009054906101000a900460ff16905084565b60026008541415610a98576040517f08c379a0000000000000000000000000000000000000000000000000000000008152600401610a8f906111ef565b60405180910390fd5b6002600881905550565b6001600881905550565b600080600073__$4c2cba6680386d05354b71d5a44411cc21$__63168703fa9091856040518363ffffffff1660e01b8152600401610aeb92919061120f565b60206040518083038186803b158015610b0357600080fd5b505af4158015610b17573d6000803e3d6000fd5b505050506040513d601f19601f82011682018060405250810190610b3b9190610dfb565b9050600060186001600760009054906101000a900463ffffffff16610b6091906113c3565b610b6a919061153e565b905080600760006101000a81548163ffffffff021916908363ffffffff16021790555081600660008363ffffffff168152602001908152602001600020819055508192505050919050565b6000610bc8610bc384611301565b6112dc565b90508082856040860282011115610bde57600080fd5b60005b85811015610c0e5781610bf48882610cb7565b845260208401935060408301925050600181019050610be1565b5050509392505050565b6000610c2b610c2684611327565b6112dc565b90508082856020860282011115610c4157600080fd5b60005b85811015610c715781610c578882610cf3565b845260208401935060208301925050600181019050610c44565b5050509392505050565b600081359050610c8a8161174f565b92915050565b600082601f830112610ca157600080fd5b6002610cae848285610bb5565b91505092915050565b600082601f830112610cc857600080fd5b6002610cd5848285610c18565b91505092915050565b600081519050610ced81611766565b92915050565b600081359050610d028161177d565b92915050565b600081519050610d178161177d565b92915050565b6000806000806000806101808789031215610d3757600080fd5b6000610d4589828a01610c7b565b9650506020610d5689828a01610cf3565b9550506040610d6789828a01610cb7565b9450506080610d7889828a01610c90565b935050610100610d8a89828a01610cb7565b925050610140610d9c89828a01610cb7565b9150509295509295509295565b600060208284031215610dbb57600080fd5b6000610dc984828501610cde565b91505092915050565b600060208284031215610de457600080fd5b6000610df284828501610cf3565b91505092915050565b600060208284031215610e0d57600080fd5b6000610e1b84828501610d08565b91505092915050565b6000610e308383610eba565b60408301905092915050565b6000610e48838361105f565b60208301905092915050565b610e5d81611489565b82525050565b610e6c81611361565b610e768184611391565b9250610e818261134d565b8060005b83811015610eb2578151610e998782610e24565b9650610ea483611377565b925050600181019050610e85565b505050505050565b610ec38161136c565b610ecd818461139c565b9250610ed882611357565b8060005b83811015610f09578151610ef08782610e3c565b9650610efb83611384565b925050600181019050610edc565b505050505050565b610f1a8161136c565b610f2481846113a7565b9250610f2f82611357565b8060005b83811015610f60578151610f478782610e3c565b9650610f5283611384565b925050600181019050610f33565b505050505050565b610f7181611443565b82525050565b610f808161149b565b82525050565b6000610f93602f836113b2565b9150610f9e8261160d565b604082019050919050565b6000610fb66023836113b2565b9150610fc18261165c565b604082019050919050565b6000610fd9601c836113b2565b9150610fe4826116ab565b602082019050919050565b6000610ffc6010836113b2565b9150611007826116d4565b602082019050919050565b600061101f601a836113b2565b915061102a826116fd565b602082019050919050565b6000611042601f836113b2565b915061104d82611726565b602082019050919050565b8082525050565b6110688161146f565b82525050565b6110778161146f565b82525050565b6110868161146f565b82525050565b61109581611479565b82525050565b60006060820190506110b06000830186610e54565b6110bd602083018561106e565b6110ca604083018461106e565b949350505050565b6000610140820190506110e86000830187610f11565b6110f56040830186610e63565b61110260c0830185610f11565b611110610100830184610f11565b95945050505050565b600060208201905061112e6000830184610f68565b92915050565b60006020820190506111496000830184610f77565b92915050565b6000602082019050818103600083015261116881610f86565b9050919050565b6000602082019050818103600083015261118881610fa9565b9050919050565b600060208201905081810360008301526111a881610fcc565b9050919050565b600060208201905081810360008301526111c881610fef565b9050919050565b600060208201905081810360008301526111e881611012565b9050919050565b6000602082019050818103600083015261120881611035565b9050919050565b60006040820190506112246000830185611058565b611231602083018461107d565b9392505050565b600060208201905061124d600083018461106e565b92915050565b6000604082019050611268600083018561106e565b611275602083018461106e565b9392505050565b6000608082019050611291600083018761106e565b61129e602083018661106e565b6112ab604083018561106e565b6112b86060830184610f68565b95945050505050565b60006020820190506112d6600083018461108c565b92915050565b60006112e66112f7565b90506112f2828261150d565b919050565b6000604051905090565b600067ffffffffffffffff82111561131c5761131b6115cd565b5b602082029050919050565b600067ffffffffffffffff821115611342576113416115cd565b5b602082029050919050565b6000819050919050565b6000819050919050565b600060029050919050565b600060029050919050565b6000602082019050919050565b6000602082019050919050565b600081905092915050565b600081905092915050565b600081905092915050565b600082825260208201905092915050565b60006113ce82611479565b91506113d983611479565b92508263ffffffff038211156113f2576113f161156f565b5b828201905092915050565b60006114088261146f565b91506114138361146f565b9250828210156114265761142561156f565b5b828203905092915050565b600061143c8261144f565b9050919050565b60008115159050919050565b600073ffffffffffffffffffffffffffffffffffffffff82169050919050565b6000819050919050565b600063ffffffff82169050919050565b6000611494826114bf565b9050919050565b60006114a6826114ad565b9050919050565b60006114b88261144f565b9050919050565b60006114ca826114d1565b9050919050565b60006114dc8261144f565b9050919050565b60006114ee82611479565b915060008214156115025761150161156f565b5b600182039050919050565b611516826115fc565b810181811067ffffffffffffffff82111715611535576115346115cd565b5b80604052505050565b600061154982611479565b915061155483611479565b9250826115645761156361159e565b5b828206905092915050565b7f4e487b7100000000000000000000000000000000000000000000000000000000600052601160045260246000fd5b7f4e487b7100000000000000000000000000000000000000000000000000000000600052601260045260246000fd5b7f4e487b7100000000000000000000000000000000000000000000000000000000600052604160045260246000fd5b6000601f19601f8301169050919050565b7f53656e642074686520636f7272656374206465706f73697420616d6f756e742060008201527f746f2074686520636f6e74726163740000000000000000000000000000000000602082015250565b7f436f6d6d69746d656e7420686173206265656e20757365642070726576696f7560008201527f736c790000000000000000000000000000000000000000000000000000000000602082015250565b7f6e756c6c6966696572204861736820686173206265656e207573656400000000600082015250565b7f57726f6e672070726f6f662073656e7400000000000000000000000000000000600082015250565b7f5573652061206b6e6f776e206f7220726563656e7420726f6f74000000000000600082015250565b7f5265656e7472616e637947756172643a207265656e7472616e742063616c6c00600082015250565b61175881611431565b811461176357600080fd5b50565b61176f81611443565b811461177a57600080fd5b50565b6117868161146f565b811461179157600080fd5b5056fea26469706673582212208373e67ae46f18479606629c79d01f6567209222a63ab423f2fec52289ced1b064736f6c63430008040033",
  "linkReferences": {
    "contracts/IncrementalBinaryTree.sol": {
      "IncrementalBinaryTree": [
        {
          "length": 20,
          "start": 100
        },
        {
          "length": 20,
          "start": 3672
        }
      ]
    }
  },
  "deployedLinkReferences": {
    "contracts/IncrementalBinaryTree.sol": {
      "IncrementalBinaryTree": [
        {
          "length": 20,
          "start": 2739
        }
      ]
    }
  }
}